:100000000C9437000C9400000C9400000C94000039
:100010000C9400000C9400000C9400000C94000060
:100020000C9400000C9400000C9400000C94000050
:100030000C9400000C9400000C9400000C94000040
:100040000C9400000C9400000C9400000C94000030
:100050000C94000000003F065B4F666D7D077F6FCC
:100060000100050054000A00600256000000F894E8
:10007000EE27ECBBF1E0FBBFEBBFE5BF8DE0A2E0FC
:10008000BB27ED938A95E9F780E098E0A0E6ED9331
:100090000197E9F7E0E6F0E085919591009761F02E
:1000A000A591B59105901590BF01F00105900D92B5
:1000B0000197E1F7FB01F0CFEFE5EDBFE8E0EEBF20
:1000C000C0E6D2E00C94640008D017D023D035D01D
:1000D00031D046D0FAD0FCCFFFCFE0E0EABBEBBB9B
:1000E000EFEFE7BBE0E0E8BBEFEFE4BBE0E0E5BB50
:1000F000EFE0E1BBE0E0E2BB08951A9310E01430BA
:1001000040F4EFEFE8BBF6D0E0E0E8BBF3D01F5FD0
:10011000F6CFD9C01A93E1E0E8BB10E0183048F4FC
:10012000A7E7B1E00E949701E8B3EE0FE8BB1F5FBD
:10013000F5CFC9C0E9B3E8BB08951A93E0E0E2BB8C
:1001400010E01A3060F4E12FF0E0A9E0B0E00E9486
:10015000D901EA1BFB0BD2D0CDD01F5FF2CFB3C0C9
:100160001A93552009F056C02197E0E0C899E1E0C4
:100170006E2FA0E0C999A1E0E2E0EA9FF0016E0FC6
:10018000A0E0CA99A1E0E4E0EA9FF0016E0FA0E0D0
:10019000CB99A1E0E8E0EA9FF0016E0FA0E0CC99D6
:1001A000A1E0E0E1EA9FF0016E0FA0E0CD99A1E0AF
:1001B000E0E2EA9FF0016E0FA0E0CE99A1E0E0E45A
:1001C000EA9FF0016E0FA0E0CF99A1E0E0E8EA9F7E
:1001D000F001E60FE883E0E0E0936A02A881BB2724
:1001E00092D0E0936B02A881B0E0EAE0F0E00E94D8
:1001F000B801DF0188D0E0936C02A881B0E0E4E6AA
:10020000F0E00E94B801DF017ED0E0936D02E1E0F2
:100210005E2E219610E0153010F5E7E0E2BBE0918C
:100220006A02F0E06BD074D0EBE0E2BBE0916B02CD
:10023000F0E0E05AFD4FE081E068E5BB69D0EDE019
:10024000E2BBE0916C02F0E059D062D0EEE0E2BB9C
:10025000E0916D02F0E052D05BD01F5FDCCFE09107
:100260006A02E03059F5E0916B02E030E9F4E09188
:100270006C02E03091F4E0916D02E03011F455240D
:1002800022C0E0916D02E150E0936D02E0916C02BA
:10029000E65FE0936C0240D001C03ED0E0916C027A
:1002A000E150E0936C0205C0E0916A02E65FE093E2
:1002B0006A02E0916B02E150E0936B02E0916A0206
:1002C000E250E0936A0219910895879903C0E0E033
:1002D000E0936D02869903C0E0E0E0936C0285999B
:1002E00003C0E0E0E0936B02849903C0E0E0E09398
:1002F0006A020895A4EFB1E00C949701E05AFD4F13
:10030000E081E5BB0895EAE0F0E00E94BD010895B8
:10031000A5E0B0E00C949701E0916B02E65FE093FA
:100320006B02E0916A02E65FE0936A02089510961C
:1003300039F080ED97E00197F1F7A8951197C9F78B
:100340000895F195E195F04008950024112490E17D
:10035000AA0FBB1F001C111C0E1A1F0A18F40E0E48
:100360001F1E01C0A1609A9599F7FD01D001089563
:1003700012D0EBDF0EF4E5DF0895E894B7FF04C078
:10038000A095B09511966894F7FDDBDFDEDFFD01E7
:100390000EF4D7DF0895E894F7FF02C0D2DF689427
:1003A000B7FF06C0A095B095119600F8039400FA27
:1003B00008951B2EBF2FF12D1A2EAE2FE12D08957B
:00000001FF
